:0600000000006DEF06F0A8
:100600000000FFFF010E296E2350D8B40AEF03F05B
:100610000DEF03F0FFFF8DEF03F0FFFF2350D96EC6
:10062000DA6ADF50070B0009D8A419EF03F01CEFBA
:1006300003F0FFFF2DEF03F0FFFF2350D96EDA6ABE
:10064000DF30E832E832070B070AD8B42AEF03F0AC
:100650002DEF03F0FFFF8DEF03F0FFFF2350D96E66
:10066000DA6ADF50070BE806D8B439EF03F03CEF45
:1006700003F0FFFF5AEF03F0FFFF2350D96EDA6A51
:10068000DF50070B020AD8B448EF03F04BEF03F03A
:10069000FFFF5AEF03F0FFFF2350D96EDA6ADF50F5
:1006A000070B030AD8A457EF03F05AEF03F0FFFF3C
:1006B0006CEF03F0FFFF2350D96EDA6ADF30E832C7
:1006C000E832070B246E080E246069EF03F06CEF2C
:1006D00003F0FFFF8DEF03F0FFFF2350D96EDA6ABE
:1006E000DF50070B040AD8A478EF03F07BEF03F088
:1006F000FFFFEAEF03F0FFFF2350D96EDA6ADF3025
:10070000E832E832070B246E020E24648AEF03F00D
:100710008DEF03F0FFFFEAEF03F0FFFF296A04EF1C
:1007200004F0FFFF2350D96EDA6ADF30E832E83296
:10073000070B246E010E256E242AA2EF03F0FFFFA3
:10074000D8902536FFFF242E9FEF03F02550FF0A97
:10075000266E2350D96EDA6ADF50070B020DF35074
:10076000150FD96EDA6ADECF27F0DDCF28F027C06B
:10077000D9FF28C0DAFF2650DF1604EF04F0FFFF90
:100780002350D96EDA6ADF30E832E832070B246E84
:10079000010E256E242AD0EF03F0FFFFD8902536F6
:1007A000FFFF242ECDEF03F02350D96EDA6ADF501D
:1007B000070B020DF350150FD96EDA6ADECF26F063
:1007C000DDCF27F026C0D9FF27C0DAFF2550DF1282
:1007D00004EF04F0FFFF2350D96EDA6ADFBCF3EFB9
:1007E00003F0F7EF03F0FFFF010EF9EF03F0FFFF57
:1007F000000EFFFF000AD8B491EF03F0010AD8B44D
:10080000BFEF03F08DEF03F0FFFF29501200FFFF51
:10081000FFFF010E2A6E2350D8B411EF04F014EF3D
:1008200004F0FFFF94EF04F0FFFF2350D96EDA6A63
:10083000DF50070B0009D8A420EF04F023EF04F0E9
:10084000FFFF34EF04F0FFFF2350D96EDA6ADF3088
:10085000E832E832070B070AD8B431EF04F034EF7E
:1008600004F0FFFF94EF04F0FFFF2350D96EDA6A23
:10087000DF50070BE806D8B440EF04F043EF04F074
:10088000FFFF61EF04F0FFFF2350D96EDA6ADF50FB
:10089000070B020AD8B44FEF04F052EF04F0FFFF49
:1008A00061EF04F0FFFF2350D96EDA6ADF50070BC7
:1008B000030AD8A45EEF04F061EF04F0FFFF73EFCA
:1008C00004F0FFFF2350D96EDA6ADF30E832E832F5
:1008D000070B256E080E256070EF04F073EF04F02F
:1008E000FFFF94EF04F0FFFF2350D96EDA6ADF5068
:1008F000070B040AD8A47FEF04F082EF04F0FFFF97
:10090000F1EF04F0FFFF2350D96EDA6ADF30E832EE
:10091000E832070B256E020E256491EF04F094EF88
:1009200004F0FFFFF1EF04F0FFFF2A6A08EF05F083
:10093000FFFF2350D96EDA6ADF30E832E832070B66
:10094000256E010E266E252AA9EF04F0FFFFD89030
:100950002636FFFF252EA6EF04F02650FF0A276E4D
:100960002350D96EDA6ADF50070B020DF3500B0FDC
:10097000D96EDA6ADECF28F0DDCF29F028C0D9FFA2
:1009800029C0DAFF2750DF1608EF05F0FFFF2350DC
:10099000D96EDA6ADF30E832E832070B256E010ED5
:1009A000266E252AD7EF04F0FFFFD8902636FFFFEA
:1009B000252ED4EF04F02350D96EDA6ADF50070BEE
:1009C000020DF3500B0FD96EDA6ADECF27F0DDCFC0
:1009D00028F027C0D9FF28C0DAFF2650DF1208EF21
:1009E00005F0FFFF2450256E266A2650000AD8B471
:1009F000FCEF04F094EF04F0FFFF2550000AD8B498
:100A000098EF04F0010AD8B4C6EF04F094EF04F0B4
:100A1000FFFF2A501200FFFFFFFF010E306E2E5025
:100A2000D8B415EF05F018EF05F0FFFF98EF05F0CB
:100A3000FFFF2E50D96EDA6ADF50070B0009D8A4E9
:100A400024EF05F027EF05F0FFFF38EF05F0FFFF7B
:100A50002E50D96EDA6ADF30E832E832070B070A27
:100A6000D8B435EF05F038EF05F0FFFF98EF05F04B
:100A7000FFFF2E50D96EDA6ADF50070BE806D8B4B4
:100A800044EF05F047EF05F0FFFF65EF05F0FFFFCE
:100A90002E50D96EDA6ADF50070B020AD8B453EF32
:100AA00005F056EF05F0FFFF65EF05F0FFFF2E5054
:100AB000D96EDA6ADF50070B030AD8A462EF05F09B
:100AC00065EF05F0FFFF77EF05F0FFFF2E50D96EC1
:100AD000DA6ADF30E832E832070B2F6E080E2F603B
:100AE00074EF05F077EF05F0FFFF98EF05F0FFFFDB
:100AF0002E50D96EDA6ADF50070B040AD8A483EFB0
:100B000005F086EF05F0FFFF9CEF05F0FFFF2E508C
:100B1000D96EDA6ADF30E832E832070B2F6E020E48
:100B20002F6495EF05F098EF05F0FFFF9CEF05F0BF
:100B3000FFFF306AC7EF05F0FFFF36C031F02E50DF
:100B4000D96EDA6ADF50070B2F6E31502F18F80B71
:100B50002F18316E2E50D96EDA6ADF30E832E83263
:100B6000070B2F6E2F462F462F4631502F18C70BDD
:100B70002F18316E319C2E50D96EDA6ADFAC02D05C
:100B8000318E01D0319E310E2B6ECBEC05F0FFFF84
:100B900030501200FFFFFFFF2B50D8B4D2EF05F00A
:100BA000D5EF05F0FFFF55EF06F0FFFF2B50D96E94
:100BB000DA6ADF50070B0009D8A4E1EF05F0E4EF93
:100BC00005F0FFFFF5EF05F0FFFF2B50D96EDA6A55
:100BD000DF30E832E832070B070AD8B4F2EF05F04D
:100BE000F5EF05F0FFFF55EF06F0FFFF2B50D96E34
:100BF000DA6ADF50070BE806D8B401EF06F004EF1D
:100C000006F0FFFF22EF06F0FFFF2B50D96EDA6AE5
:100C1000DF50070B020AD8B410EF06F013EF06F00E
:100C2000FFFF22EF06F0FFFF2B50D96EDA6ADF508C
:100C3000070B030AD8A41FEF06F022EF06F0FFFF10
:100C400034EF06F0FFFF2B50D96EDA6ADF30E8325E
:100C5000E832070B2C6E080E2C6031EF06F034EFF3
:100C600006F0FFFF55EF06F0FFFF2B50D96EDA6A52
:100C7000DF50070B040AD8A440EF06F043EF06F05C
:100C8000FFFF58EF06F0FFFF2B50D96EDA6ADF3016
:100C9000E832E832070B2C6E020E2C6452EF06F09D
:100CA00055EF06F0FFFF58EF06F0FFFF6AEF06F082
:100CB000FFFF2BC023F001EC03F02D6E2BC023F0BF
:100CC0002B50D96EDA6A000EDFBE010E246E08ECDE
:100CD00004F02D6EFFFF1200FFFF340EF66E0D0EB6
:100CE000F76E000EF86E00EE01F010EE22F0090033
:100CF000F5CFEEFFE550E150FAE1366A356A346A25
:100D0000336A326A000EF86E0001ABEF06F0FFFFA7
:100D1000220E2E6E0CEC05F0210E2E6E0CEC05F062
:100D2000200E2E6E0CEC05F01F0E2E6E0CEC05F056
:100D30001200FFFF800F810F820F830F840F890F36
:100D40008A0F8B0F8C0F8D0F920F930F940F950FAF
:100D5000960F40485058FFFF87EC06F001EF00F077
:020D6000FFFF93
:020000040030CA
:0E000000FF220D0EFF0181FF0FC00FE00F4029
:00000001FF
