:0600000000005BEF01F0BF
:10000800FFFF6982FACF62F0FBCF63F0D9CF64F0CB
:10001800DACF65F0F3CF66F0F4CF67F0F2A217EF0E
:1000280000F01AEF00F0FFFF26EF00F0FFFFF2A844
:1000380020EF00F023EF00F0FFFF26EF00F0FFFFB6
:10004800BDEC09F0FFFFF0A02CEF00F02FEF00F05F
:10005800FFFF3BEF00F0FFFFF0A635EF00F038EFB1
:1000680000F0FFFF3BEF00F0FFFF9EEC09F0FFFF01
:10007800F0A241EF00F044EF00F0FFFF50EF00F076
:10008800FFFFF0A84AEF00F04DEF00F0FFFF50EF40
:1000980000F0FFFF7FEC09F0FFFFF2A056EF00F041
:1000A80059EF00F0FFFF36EF01F0FFFFF2A65FEF18
:1000B80000F062EF00F0FFFF36EF01F0FFFF81A8CC
:1000C80068EF00F06BEF00F0FFFF7CEF00F0FFFF40
:1000D8002204D8A472EF00F075EF00F0FFFF7CEF68
:1000E80000F0FFFF226A010E3FEC0AF097EF00F0E4
:1000F800FFFF81B882EF00F085EF00F0FFFF97EF78
:1001080000F0FFFF2250D8A48CEF00F08FEF00F032
:10011800FFFF97EF00F0FFFF010E226E000E3FEC8D
:100128000AF097EF00F0FFFF81AA9DEF00F0A0EF23
:1001380000F0FFFFB1EF00F0FFFF2104D8A4A7EF04
:1001480000F0AAEF00F0FFFFB1EF00F0FFFF216A17
:10015800010E3BEC0AF0CCEF00F0FFFF81BAB7EFDD
:1001680000F0BAEF00F0FFFFCCEF00F0FFFF2150E6
:10017800D8A4C1EF00F0C4EF00F0FFFFCCEF00F00F
:10018800FFFF010E216E000E3BEC0AF0CCEF00F0F1
:10019800FFFF81ACD2EF00F0D5EF00F0FFFFE6EFF4
:1001A80000F0FFFF2004D8A4DCEF00F0DFEF00F040
:1001B800FFFFE6EF00F0FFFF206A010E37EC0AF0C0
:1001C80001EF01F0FFFF81BCECEF00F0EFEF00F072
:1001D800FFFF01EF01F0FFFF2050D8A4F6EF00F079
:1001E800F9EF00F0FFFF01EF01F0FFFF010E206EB5
:1001F800000E37EC0AF001EF01F0FFFF81AE07EFC8
:1002080001F00AEF01F0FFFF1BEF01F0FFFF1F04F1
:10021800D8A411EF01F014EF01F0FFFF1BEF01F07C
:10022800FFFF1F6A010E33EC0AF036EF01F0FFFF03
:1002380081BE21EF01F024EF01F0FFFF36EF01F05E
:10024800FFFF1F50D8A42BEF01F02EEF01F0FFFFA6
:1002580036EF01F0FFFF010E1F6E000E33EC0AF0BF
:1002680036EF01F0FFFF9DAC3CEF01F03FEF01F0EE
:10027800FFFF4BEF01F0FFFF9EAC45EF01F048EFA9
:1002880001F0FFFF4BEF01F0FFFF37EC09F0FFFF34
:1002980067C0F4FF66C0F3FF65C0DAFF64C0D9FF2A
:1002A80063C0FBFF62C0FAFF69921100FFFFB7EF5E
:0202B80008F04C
:10060000003132334134353642373839432A3023CA
:05061000442569000013
:10061600FFFF0001B851D8B413EF03F016EF03F053
:10062600FFFF25EF03F0FFFFB851D96EDA6A020E1D
:10063600D926DE28D8A422EF03F025EF03F0FFFF2A
:1006460029EF03F0FFFFBD6BE6EF03F0FFFFC2905B
:10065600BA6BB851D96EDA6A020ED926DF50F5ECBC
:1006660009F00009D8B43AEF03F03DEF03F0FFFFBD
:1006760054EF03F0FFFF0001B851D96EDA6A020E9B
:10068600D926DF50B3EC06F00009D8B44DEF03F0DD
:1006960050EF03F0FFFF54EF03F0FFFF010E0001E0
:1006A600BA6FFFFFBAC0BDF0C18E0001B851D96E56
:1006B600DA6A030ED926DF50B96FD890B933D890CD
:1006C600B933010EB917B93BB947B947C150B91982
:1006D600BF0BB919C16EB851D96EDA6A030ED926A5
:1006E600DF50B96FD890B933010EB917B933B933A2
:1006F600C250B9197F0BB919C26EB851D96EDA6AF0
:10070600030ED926DF50B96F010EB917B93BB947A9
:10071600B947C250B919BF0BB919C26EBB6BBD51EF
:10072600D8B498EF03F09BEF03F0FFFFACEF03F0B4
:10073600FFFF010E21EC0AF00009D8B4A5EF03F083
:10074600A8EF03F0FFFFACEF03F0FFFF010E00017F
:10075600BB6FFFFFBBC0BDF00001BC6BBD51D8B481
:10076600B7EF03F0BAEF03F0FFFFD1EF03F0FFFF9F
:10077600B851D96EDA6ADECFB1F0DDCFB2F02BEC2C
:100786000AF00009D8B4CAEF03F0CDEF03F0FFFF7B
:10079600D1EF03F0FFFF010E0001BC6FFFFFBCC0ED
:1007A600BDF00001B851D96EDA6A040ED926DF50C1
:1007B600B96FFF0EB9270F0EB917C150B919F00B53
:1007C600B919C16EC280FFFFBD511200FFFFFFFFC6
:1007D600010E0001B36FB151D8B4F4EF03F0F7EF97
:1007E60003F0FFFF77EF04F0FFFFB151D96EDA6A2D
:1007F600DF50070B0009D8A403EF04F006EF04F05E
:10080600FFFF17EF04F0FFFFB151D96EDA6ADF3050
:10081600E832E832070B070AD8B414EF04F017EFF2
:1008260004F0FFFF77EF04F0FFFFB151D96EDA6AEB
:10083600DF50070BE806D8B423EF04F026EF04F0E8
:10084600FFFF44EF04F0FFFFB151D96EDA6ADF50C3
:10085600070B020AD8B432EF04F035EF04F0FFFFBD
:1008660044EF04F0FFFFB151D96EDA6ADF50070B8F
:10087600030AD8A441EF04F044EF04F0FFFF56EF5B
:1008860004F0FFFFB151D96EDA6ADF30E832E832A0
:10089600070BB26F080EB26153EF04F056EF04F087
:1008A600FFFF77EF04F0FFFFB151D96EDA6ADF5030
:1008B600070B040AD8A462EF04F065EF04F0FFFF0B
:1008C60079EF04F0FFFFB151D96EDA6ADF30E83212
:1008D600E832070BB26F020EB26574EF04F077EFE1
:1008E60004F0FFFF79EF04F0FFFFB36BFFFFB35196
:1008F6001200FFFFFFFF010E506E4E50D8B486EF78
:1009060004F089EF04F0FFFF09EF05F0FFFF4E50FA
:10091600D96EDA6ADF50070B0009D8A495EF04F008
:1009260098EF04F0FFFFA9EF04F0FFFF4E50D96ED9
:10093600DA6ADF30E832E832070B070AD8B4A6EFE6
:1009460004F0A9EF04F0FFFF09EF05F0FFFF4E509A
:10095600D96EDA6ADF50070BE806D8B4B5EF04F0B3
:10096600B8EF04F0FFFFD6EF04F0FFFF4E50D96E4C
:10097600DA6ADF50070B020AD8B4C4EF04F0C7EFF7
:1009860004F0FFFFD6EF04F0FFFF4E50D96EDA6A8F
:10099600DF50070B030AD8A4D3EF04F0D6EF04F018
:1009A600FFFFE8EF04F0FFFF4E50D96EDA6ADF3042
:1009B600E832E832070B4F6E080E4F60E5EF04F0A1
:1009C600E8EF04F0FFFF09EF05F0FFFF4E50D96E88
:1009D600DA6ADF50070B040AD8A4F4EF04F0F7EF45
:1009E60004F0FFFF0BEF05F0FFFF4E50D96EDA6AF9
:1009F600DF30E832E832070B4F6E020E4F6406EF27
:100A060005F009EF05F0FFFF0BEF05F0FFFF506A59
:100A1600FFFF50501200FFFFFFFF010E0001BA6FEB
:100A2600B4C0B1F0EAEC03F00009D8A41DEF05F05C
:100A360020EF05F0FFFF81EF05F0FFFFFFFF00014C
:100A4600BA6B9CEF05F0FFFFB451D96EDA6ADF305E
:100A5600E832E832070BB56F010EB66FB52B37EFEC
:100A660005F0FFFFD890B637FFFFB52F34EF05F03E
:100A76000001B651FF0AB76FB451D96EDA6ADF507A
:100A8600070B020DF3500B0FD96EDA6ADECFB8F002
:100A9600DDCFB9F0B8C0D9FFB9C0DAFFB751DF165C
:100AA6009CEF05F0FFFFB451D96EDA6ADF30E83209
:100AB600E832070BB56F010EB66FB52B66EF05F082
:100AC600FFFFD890B637FFFFB52F63EF05F00001A3
:100AD600B451D96EDA6ADF50070B020DF3500B0FD3
:100AE600D96EDA6ADECFB7F0DDCFB8F0B7C0D9FF7E
:100AF600B8C0DAFFB651DF129CEF05F0FFFF000128
:100B0600B451D96EDA6ADFBC8BEF05F08FEF05F0D2
:100B1600FFFF010E91EF05F0FFFF000EFFFF000A39
:100B2600D8B426EF05F0010AD8B455EF05F021EF49
:100B360005F0FFFFBA511200FFFFFFFF010E000193
:100B4600BB6FB4C0B1F0EAEC03F00009D8A4AEEF75
:100B560005F0B1EF05F0FFFF12EF06F0FFFFFFFF14
:100B66000001BB6B2AEF06F0FFFFB451D96EDA6ABB
:100B7600DF30E832E832070BB66F010EB76FB62BDF
:100B8600C8EF05F0FFFFD890B737FFFFB62FC5EFC8
:100B960005F00001B751FF0AB86FB451D96EDA6A91
:100BA600DF50070B020DF350010FD96EDA6ADECF64
:100BB600B9F0DDCFBAF0B9C0D9FFBAC0DAFFB85183
:100BC600DF162AEF06F0FFFFB451D96EDA6ADF307E
:100BD600E832E832070BB66F010EB76FB62BF7EFA8
:100BE60005F0FFFFD890B737FFFFB62FF4EF05F0FB
:100BF6000001B451D96EDA6ADF50070B020DF350CB
:100C0600010FD96EDA6ADECFB8F0DDCFB9F0B8C021
:100C1600D9FFB9C0DAFFB751DF122AEF06F0FFFF9E
:100C26000001B551B66FB76BB751000AD8B41EEFC5
:100C360006F0B2EF05F0FFFFB651000AD8B4B7EFE1
:100C460005F0010AD8B4E6EF05F0B2EF05F0FFFFB4
:100C5600BB511200FFFFFFFF51C04EF07DEC04F0C8
:100C66000009D8A439EF06F03CEF06F0FFFF99EF34
:100C760006F0FFFFFFFFB0EF06F0FFFF5150D96E01
:100C8600DA6ADF30E832E832070B536E010E546E33
:100C9600532A51EF06F0FFFFD8905436FFFF532E2C
:100CA6004EEF06F05450FF0A556E5150D96EDA6A6F
:100CB600DF50070B020DF350010FD96EDA6ADECF53
:100CC60056F0DDCF57F056C0D9FF57C0DAFF555062
:100CD600DF16B0EF06F0FFFF5150D96EDA6ADF304B
:100CE600E832E832070B536E010E546E532A7FEF3B
:100CF60006F0FFFFD8905436FFFF532E7CEF06F028
:100D06005150D96EDA6ADF50070B020DF350010F0E
:100D1600D96EDA6ADECF55F0DDCF56F055C0D9FF71
:100D260056C0DAFF5450DF12B0EF06F0FFFF525004
:100D3600536E546A5450000AD8B4A4EF06F03DEF3F
:100D460006F0FFFF5350000AD8B440EF06F0010A40
:100D5600D8B46EEF06F03DEF06F0FFFF1200FFFF7E
:100D6600FFFF0001B36F010E0001B46FDFEF06F065
:100D7600FFFFB46B1CEF07F0FFFF92801CEF07F03C
:100D8600FFFF92821CEF07F0FFFF92841CEF07F033
:100D9600FFFF92861CEF07F0FFFF928A1CEF07F019
:100DA600FFFF96801CEF07F0FFFF96821CEF07F00F
:100DB600FFFF96841CEF07F0FFFFB3C0B1F0B26BE4
:100DC600B1BFB207B251000AD8B4F0EF06F0FF0A7D
:100DD600D8B414EF07F0BBEF06F0FFFFB151000ADD
:100DE600D8B4BFEF06F0010AD8B4C3EF06F0030A81
:100DF600D8B4C7EF06F0010AD8B4CBEF06F0070A5D
:100E0600D8B4CFEF06F0010AD8B4D3EF06F0030A40
:100E1600D8B4D7EF06F0010AD8B4DBEF06F0BBEF83
:100E260006F0FFFFB151FF0AD8B4BBEF06F0BBEFE7
:100E360006F0FFFFB4511200FFFFFFFF010E000195
:100E4600C06FBE51D8A42AEF07F02DEF07F0FFFFC1
:100E560033EF07F0FFFFFFFF0001C06B6EEF07F0F7
:100E6600FFFF4BC0C1F0BE51D96EDA6ADF50070BE7
:100E7600BF6FC151BF19F80BBF19C16FBE51D96EF3
:100E8600DA6ADF30E832E832070BBF6FBF47BF4789
:100E9600BF47C151BF19C70BBF19C16FC19DBE5115
:100EA600D96EDA6ADFAC02D0C18F02D00001C19FD1
:100EB600C10EB16FEAEC03F0E806D8A465EF07F0BF
:100EC60068EF07F0FFFF2EEF07F0FFFFC10E0001EE
:100ED600BC6FE4EC08F0FFFF0001C0511200FFFFF9
:100EE600FFFF5850D8A47AEF07F07DEF07F0FFFF19
:100EF60081EF07F0FFFFFFFFBCEF07F0FFFF4AC0DF
:100F06005AF05850D96EDA6ADF50070B596E5A50AC
:100F16005918F80B59185A6E5850D96EDA6ADF30DC
:100F2600E832E832070B596E5946594659465A5027
:100F36005918C70B59185A6E5A9C5850D96EDA6A06
:100F4600DFAC02D05A8E01D05A9E5A0E4E6E7DEC00
:100F560004F0E806D8A4B2EF07F0B5EF07F0FFFFFC
:100F66007EEF07F0FFFF5A0E516E010E526E2EEC09
:100F760006F0FFFF1200FFFFFFFF5850D8A4C6EF90
:100F860007F0C9EF07F0FFFFCDEF07F0FFFFFFFF08
:100F960008EF08F0FFFF49C05AF05850D96EDA6AD8
:100FA600DF50070B596E5A505918F80B59185A6EDC
:100FB6005850D96EDA6ADF30E832E832070B596EDC
:100FC6005946594659465A505918C70B59185A6E18
:100FD6005A9C5850D96EDA6ADFAC02D05A8E01D0CC
:100FE6005A9E5A0E4E6E7DEC04F0E806D8A4FEEF2B
:100FF60007F001EF08F0FFFFCAEF07F0FFFF5A0EF8
:10100600516E000E526E2EEC06F0FFFF1200FFFF2F
:10101600FFFF0001B851D8B413EF08F016EF08F03F
:10102600FFFF25EF08F0FFFFB851D96EDA6A020E0E
:10103600D926DE28D8A422EF08F025EF08F0FFFF16
:1010460028EF08F0FFFF43EF08F0FFFFB929D8A407
:101056002FEF08F032EF08F0FFFF3DEF08F0FFFF3B
:10106600B851D96EDA6A020ED926DF50F5EC09F0CE
:1010760041EF08F0FFFFB951F5EC09F0FFFFC2841C
:10108600FFFF1200FFFFFFFF5F6AFFFF5FC05CF01C
:101096005B50D96EDA6ADECF5DF0DDCF5EF05C2A9A
:1010A60059EF08F0FFFFD8905E325D32FFFF5C2EED
:1010B60055EF08F05DA062EF08F065EF08F0FFFF5E
:1010C6006DEF08F0FFFF5F50A70F586E73EC07F047
:1010D60073EF08F0FFFF5F50A70F586EBFEC07F0E5
:1010E600FFFF5F2A090E5F647BEF08F07EEF08F0D2
:1010F600FFFF48EF08F0FFFF1200FFFFFFFF010EA2
:101106000001C36F446AFFFF0001C26BC351D8B42C
:101116008FEF08F092EF08F0FFFFA5EF08F0FFFF52
:101126004450A70FBE6F20EC07F00009D8B49EEF1D
:1011360008F0A1EF08F0FFFFA5EF08F0FFFF010E92
:101146000001C26FFFFFC2C0C3F0442A090E446407
:10115600AFEF08F0B2EF08F0FFFF86EF08F0FFFFF1
:101166000001C3511200FFFFB80EF66E130EF76EA4
:10117600000EF86E00EE80F010EE31F00900F5CFAB
:10118600EEFFE550E150FAE11A0EF66E140EF76E18
:10119600000EF86E00EE01F010EE28F00900F5CF13
:1011A600EEFFE550E150FAE100EE29F0250EEE6A79
:1011B600E806FDE169906992000EF86E00015EEFA7
:1011C60009F0FFFFBCC0B1F0EAEC03F00009D8A4B7
:1011D600EFEF08F0F2EF08F0FFFFF7EF08F0FFFF80
:1011E6000001BD6B0BEF09F0FFFFBCC0B4F00FECC4
:1011F60005F00001BD6FBCC0B4F0BC51D96EDA6A0F
:10120600000EDFBE010EB56FA0EC05F00001BD6F4C
:10121600FFFFBD511200FFFFFFFF81EC08F0000148
:10122600C56FC46BC551D8B41BEF09F01EEF09F0AA
:10123600FFFF30EF09F0FFFF240EB86F0BEC03F051
:101246000009D8B429EF09F02CEF09F0FFFF30EFC1
:1012560009F0FFFF010E0001C46FFFFFC4C0C5F017
:101266000001C5511200FFFFFFFF9E9C4150421036
:10127600D8B440EF09F043EF09F0FFFF5BEF09F048
:10128600FFFFC450606EC3504C6E60C04DF04C0EF4
:101296005B6E02D85BEF09F0FFFF0500FA6E415066
:1012A600FD6E4250FE6EF850FF6EFA501200FFFFC0
:1012B600FFFF1200FFFFFFFF0FEC09F0686E68509A
:1012C600D8A468EF09F06BEF09F0FFFF6EEF09F0A5
:1012D600FFFF7CEF09F0FFFF240E0001B86FFF0E41
:1012E600B96F0BEC08F0050EFFFFE82EFDD76EEF89
:1012F60009F0FFFF5BEF01F0FFFFF0923B503C105F
:10130600D8B488EF09F08BEF09F0FFFF9BEF09F0E7
:10131600FFFF02D89BEF09F0FFFF0500FA6E3B5076
:10132600FD6E3C50FE6EF850FF6EFA501200FFFF45
:10133600FFFF1200FFFFFFFFF0903D503E10D8B4B4
:10134600A7EF09F0AAEF09F0FFFFBAEF09F0FFFFD8
:1013560002D8BAEF09F0FFFF0500FA6E3D50FD6EA8
:101366003E50FE6EF850FF6EFA501200FFFFFFFF70
:101376001200FFFFFFFFF2923F504010D8B4C6EFB5
:1013860009F0C9EF09F0FFFFD9EF09F0FFFF02D816
:10139600D9EF09F0FFFF0500FA6E3F50FD6E405091
:1013A600FE6EF850FF6EFA501200FFFFFFFF1200AC
:1013B600FFFF939B01A2AAB2BAA3ABB3BB800F8176
:1013C6000F820F830F840F211911092B231B130082
:1013D6000008101800861449013B332B233A322AA1
:0313E600221B13B4
:1013EA00FFFF0001B76FB7C0B5F0070E0001B517D0
:1013FA00B547B547B547C250B519C70BB519C26E3F
:10140A00B751B3EC06F00001B66FB6511200FFFFF8
:10141A00890F8A0F8B0F8C0F8D0F920F930F940FDA
:10142A00950F960F4C0100E001017C4A081001015A
:10143A000101088C10070201FFFF9E9C9D9CD09E13
:10144A00F28EF28C9D8C010E1200FFFFFFFFB1C0DD
:10145A0041F0B2C042F0010E1200FFFFFFFFF2900E
:10146A001200FFFFFFFFF2901200FFFFFFFFF29052
:10147A001200FFFFFFFFF2901200FFFFFFFF1200B2
:04148A00FFFFFFFF62
:020000040030CA
:0E000000FF220D0EFF0181FF0FC00FE00F4029
:00000001FF
