:06000000000068EF07F0AC
:10060000003132334134353642373839432A3023CA
:100610004400FFFF010E446E4250D8B412EF03F0C5
:1006200015EF03F0FFFF95EF03F0FFFF4250D96E87
:10063000DA6ADF50070B0009D8A421EF03F024EF9A
:1006400003F0FFFF35EF03F0FFFF4250D96EDA6A87
:10065000DF30E832E832070B070AD8B432EF03F094
:1006600035EF03F0FFFF95EF03F0FFFF4250D96E27
:10067000DA6ADF50070BE806D8B441EF03F044EF25
:1006800003F0FFFF62EF03F0FFFF4250D96EDA6A1A
:10069000DF50070B020AD8B450EF03F053EF03F01A
:1006A000FFFF62EF03F0FFFF4250D96EDA6ADF50BE
:1006B000070B030AD8A45FEF03F062EF03F0FFFF1C
:1006C00074EF03F0FFFF4250D96EDA6ADF30E83290
:1006D000E832070B436E080E436071EF03F074EFCE
:1006E00003F0FFFF95EF03F0FFFF4250D96EDA6A87
:1006F000DF50070B040AD8A480EF03F083EF03F068
:10070000FFFF97EF03F0FFFF4250D96EDA6ADF3048
:10071000E832E832070B436E020E436492EF03F0B7
:1007200095EF03F0FFFF97EF03F0FFFF446AFFFF31
:1007300044501200FFFFFFFF010E4B6E45C042F018
:1007400009EC03F00009D8A4A8EF03F0ABEF03F025
:10075000FFFF09EF04F0FFFFFFFF4B6A23EF04F0F8
:10076000FFFF4550D96EDA6ADF30E832E832070B16
:10077000466E010E476E462AC1EF03F0FFFFD89088
:100780004736FFFF462EBEEF03F04750FF0A486E84
:100790004550D96EDA6ADF50070B020DF350150F82
:1007A000D96EDA6ADECF49F0DDCF4AF049C0D9FF11
:1007B0004AC0DAFF4850DF1623EF04F0FFFF455030
:1007C000D96EDA6ADF30E832E832070B466E010E86
:1007D000476E462AEFEF03F0FFFFD8904736FFFF42
:1007E000462EECEF03F04550D96EDA6ADF50070B66
:1007F000020DF350150FD96EDA6ADECF48F0DDCF67
:1008000049F048C0D9FF49C0DAFF4750DF1223EF53
:1008100004F0FFFF4550D96EDA6ADFBC12EF04F036
:1008200016EF04F0FFFF010E18EF04F0FFFF000EBB
:10083000FFFF000AD8B4B0EF03F0010AD8B4DEEF2E
:1008400003F0ACEF03F0FFFF4B501200FFFFFFFF80
:10085000010E4C6E45C042F009EC03F00009D8A42B
:1008600034EF04F037EF04F0FFFF95EF04F0FFFFE3
:10087000FFFF4C6AACEF04F0FFFF4550D96EDA6A17
:10088000DF30E832E832070B476E010E486E472A28
:100890004DEF04F0FFFFD8904836FFFF472E4AEF98
:1008A00004F04850FF0A496E4550D96EDA6ADF50AD
:1008B000070B020DF3500B0FD96EDA6ADECF4AF048
:1008C000DDCF4BF04AC0D9FF4BC0DAFF4950DF16ED
:1008D000ACEF04F0FFFF4550D96EDA6ADF30E83242
:1008E000E832070B476E010E486E472A7BEF04F093
:1008F000FFFFD8904836FFFF472E78EF04F04550B1
:10090000D96EDA6ADF50070B020DF3500B0FD96E68
:10091000DA6ADECF49F0DDCF4AF049C0D9FF4AC0DC
:10092000DAFF4850DF12ACEF04F0FFFF4650476E8D
:10093000486A4850000AD8B4A0EF04F038EF04F039
:10094000FFFF4750000AD8B43CEF04F0010AD8B4C6
:100950006AEF04F038EF04F0FFFF4C501200FFFF85
:10096000FFFF5750D8B4B7EF04F0BAEF04F0FFFF21
:10097000D8EF04F0FFFF5850D8B4C1EF04F0C4EF33
:1009800004F0FFFFD8EF04F0FFFF5950D8B4CBEFCD
:1009900004F0CEEF04F0FFFFD8EF04F0FFFF630E8A
:1009A0005A64D5EF04F0D8EF04F0FFFFDCEF04F059
:1009B000FFFF5C6A28EF05F0FFFF57C04DF05AC0FB
:1009C00042F0436A000E456E0A0E446EA3EC05F039
:1009D00042504E6E77EC06F05C6E59C045F0010E49
:1009E000466E27EC04F05C6E140E5B6E7D0EFFFF0E
:1009F000E82EFDD75B2EFBD700D059C045F0000E86
:100A0000466E27EC04F057C04DF05AC042F0436ADE
:100A1000000E456E0A0E446E2CEC05F042504E6EF0
:100A200077EC06F058C045F0010E466E27EC04F056
:100A3000140E5B6E7D0EFFFFE82EFDD75B2EFBD7FD
:100A400000D058C045F0000E466E27EC04F05C6EF6
:100A5000FFFF5C501200FFFFFFFF476A45BE36EF05
:100A600005F033EF05F0FFFF3DEF05F0FFFF446CAD
:100A7000451ED8B0452A010E476EFFFF43BE46EF24
:100A800005F043EF05F0FFFF4DEF05F0FFFF426C6F
:100A9000431ED8B0432A010E471AFFFF000E496ECD
:100AA000000E486E44504510D8B459EF05F05CEF85
:100AB00005F0FFFF8DEF05F0FFFF010E466E66EFBC
:100AC00005F0FFFFD89044364536462AFFFF45AE75
:100AD0006CEF05F06FEF05F0FFFF61EF05F0FFFF32
:100AE000FFFFD890483649364450425C4550435841
:100AF000D8A07DEF05F080EF05F0FFFF86EF05F051
:100B0000FFFF4450425E4550435A4880FFFFD89053
:100B100045324432462E70EF05F0FFFF4750D8B4FF
:100B200094EF05F097EF05F0FFFF9CEF05F0FFFF56
:100B3000486C491ED8B0492AFFFF48C042F049C05E
:100B400043F01200FFFFFFFF476A43BEADEF05F021
:100B5000AAEF05F0FFFFB4EF05F0FFFF426C431E64
:100B6000D8B0432A010E476EFFFF45BEBDEF05F02A
:100B7000BAEF05F0FFFFC2EF05F0FFFF446C451E22
:100B8000D8B0452AFFFF44504510D8B4CAEF05F04D
:100B9000CDEF05F0FFFFFAEF05F0FFFF010E466E07
:100BA000D7EF05F0FFFFD89044364536462AFFFFC1
:100BB00045AEDDEF05F0E0EF05F0FFFFD2EF05F009
:100BC000FFFFFFFF4450425C45504358D8A0EBEF75
:100BD00005F0EEEF05F0FFFFF3EF05F0FFFF4450E7
:100BE000425E4550435AFFFFD89045324432462E6C
:100BF000E1EF05F0FFFF4750D8B401EF06F004EF36
:100C000006F0FFFF09EF06F0FFFF426C431ED8B06D
:100C1000432AFFFF42C042F043C043F01200FFFFEF
:100C2000FFFF010E456E466A4250D8B41AEF06F037
:100C30001DEF06F0FFFF27EF06F0FFFF4350D8A49B
:100C400024EF06F027EF06F0FFFF2BEF06F0FFFF83
:100C5000456A73EF06F0FFFFFFFF42504624D96E4E
:100C6000DA6ADF50070B446E43504624D96EDA6AC5
:100C7000DF504418F80B4418DF6E42504624D96EFA
:100C8000DA6ADF30E832E832070B446E435046241C
:100C9000D96EDA6A444644464446DF504418C70BCE
:100CA0004418DF6E43504624D96EDA6ADF9C425006
:100CB000D96EDA6A040ED926DF50446E43504624BA
:100CC000D96EDA6A44324432DF5044187F0B44183C
:100CD000DF6E462A030E466470EF06F073EF06F0EF
:100CE000FFFF2CEF06F0FFFF45501200FFFFFFFF54
:100CF000566A4D50D8B47FEF06F082EF06F0FFFF42
:100D00008CEF06F0FFFF090E4E6489EF06F08CEFC2
:100D100006F0FFFF90EF06F0FFFF556AD1EF06F0F7
:100D2000FFFF4DC042F0510E436E10EC06F0556EC1
:100D3000C7EF06F0FFFF56C04FF04EC050F04F2AED
:100D4000A5EF06F0FFFFD8905032FFFF4F2EA2EF25
:100D500006F050A0AEEF06F0B1EF06F0FFFFBCEFDB
:100D600006F0FFFF5650510F456E010E466E27EC00
:100D700004F0556EC5EF06F0FFFF5650510F456E5B
:100D8000000E466E27EC04F0556EFFFF562AFFFF5B
:100D9000030E5664CEEF06F0D1EF06F0FFFF9AEF98
:100DA00006F0FFFF55501200FFFFFFFF556A4F503E
:100DB000D8A4DDEF06F0E0EF06F0FFFFE4EF06F069
:100DC000FFFF546A1CEF07F0FFFF4FC042F0500EC8
:100DD000436E10EC06F0FFFF5550500F426E09ECC9
:100DE00003F00009D8A4F7EF06F0FAEF06F0FFFFD2
:100DF000FEEF06F0FFFF000E1EEF07F0FFFF552A83
:100E0000030E556406EF07F009EF07F0FFFFEBEF65
:100E100006F0FFFF556AFFFF5550500F4D6E21EC55
:100E200007F0546E552A030E556419EF07F01CEFB6
:100E300007F0FFFF0BEF07F0FFFF5450FFFF12001A
:100E4000FFFFFFFF4DC042F009EC03F00009D8A4FA
:100E50002CEF07F02FEF07F0FFFF32EF07F0FFFF57
:100E600044EF07F0FFFF4DC045F09BEC03F04E6EE2
:100E70004DC045F04D50D96EDA6A000EDFBE010E4E
:100E8000466E27EC04F04E6EFFFF1200FFFF800F4E
:100E9000810F820F830F840F890F8A0F8B0F8C0FA6
:100EA0008D0F920F930F940F950F960F2119110923
:100EB0002B231B1300000810180C0100E001017C1B
:0F0EC0004A08105A0840080008101800010A12CA
:100ED0008E0EF66E0E0EF76E000EF86E00EE01F03E
:100EE00010EE41F00900F5CFEEFFE550E150FAE1D8
:100EF00000EE5DF00A0EEE6AE806FDE1000EF86E07
:100F0000000183EF07F0FFFF95EC07F0FFFF3A0EBB
:100F1000576E400E586E410E596E430E5A6EB0EC2D
:100F200004F086EF07F001EF00F0FFFFA2EC07F0FE
:100F3000410E4D6E21EC07F0400E4D6E21EC07F096
:100F40001200FFFFFFFF3A0E4F6ED5EC06F01200C5
:040F5000FFFFFFFFA1
:020000040030CA
:0E000000FF220D0EFF0181FF0FC00FE00F4029
:00000001FF
