:060000000000FEEF1FF0FE
:10060000003132334134353642373839432A3023CA
:05061000442569000013
:10061600FFFF6150D8B412EF03F015EF03F0FFFFB0
:1006260041EF03F0FFFF6150D96EDA6A020ED92658
:10063600DF50D8B421EF03F024EF03F0FFFF33EFD0
:1006460003F0FFFF6150D96EDA6A020ED926DE0486
:10065600D8A430EF03F033EF03F0FFFF41EF03F0D0
:10066600FFFF61C050F08AEC04F00009D8A43EEF09
:1006760003F041EF03F0FFFF45EF03F0FFFF636A6E
:10068600F4EF03F0FFFF61C058F080EC07F0636EF3
:100696006128586E80EC07F0636E6150D96EDA6A95
:1006A600020ED926DF50D8A45BEF03F05EEF03F00D
:1006B600FFFFB6EF03F0FFFF646AFFFF615064249B
:1006C600070F586E80EC07F0642A030E64646EEF21
:1006D60003F071EF03F0FFFF60EF03F0FFFF620E20
:1006E600626E760EFFFFE82EFDD7622EFBD700D096
:1006F60061C05EF0280E5F6E7FEC06F00A0E626E39
:10070600BE0EFFFFE82EFDD7622EFBD700D061C0DC
:100716005EF0280E5F6E7FEC06F04B0EFFFFE82EB4
:10072600FDD761C05EF0280E5F6E7FEC06F0FFFF1E
:1007360061C05EF0010E5F6E7FEC06F061C05EF098
:10074600020E5F6E7FEC06F061C05EF0060E5F6E15
:100756007FEC06F061C05EF0800E5F6E7FEC06F007
:10076600636EF4EF03F0FFFF646AFFFF61506424D9
:10077600030F586E80EC07F0642A070E6464C6EF18
:1007860003F0C9EF03F0FFFFB8EF03F0FFFF620EBF
:10079600626E760EFFFFE82EFDD7622EFBD700D0E5
:1007A60061C05EF0380E5F6E7FEC06F00A0E626E78
:1007B600BE0EFFFFE82EFDD7622EFBD700D061C02C
:1007C6005EF0380E5F6E7FEC06F04B0EFFFFE82EF4
:1007D600FDD761C05EF0380E5F6E7FEC06F09AEFD3
:1007E60003F0FFFF63501200FFFFFFFF010E4F6E85
:1007F6004D50D8B401EF04F004EF04F0FFFF84EF8E
:1008060004F0FFFF4D50D96EDA6ADF50070B00097E
:10081600D8A410EF04F013EF04F0FFFF24EF04F068
:10082600FFFF4D50D96EDA6ADF30E832E832070B47
:10083600070AD8B421EF04F024EF04F0FFFF84EF99
:1008460004F0FFFF4D50D96EDA6ADF50070BE80659
:10085600D8B430EF04F033EF04F0FFFF51EF04F0AB
:10086600FFFF4D50D96EDA6ADF50070B020AD8B483
:100876003FEF04F042EF04F0FFFF51EF04F0FFFFFB
:100886004D50D96EDA6ADF50070B030AD8A44EEF33
:1008960004F051EF04F0FFFF63EF04F0FFFF4D504B
:1008A600D96EDA6ADF30E832E832070B4E6E080E90
:1008B6004E6060EF04F063EF04F0FFFF84EF04F096
:1008C600FFFF4D50D96EDA6ADF50070B040AD8A431
:1008D6006FEF04F072EF04F0FFFF86EF04F0FFFF06
:1008E6004D50D96EDA6ADF30E832E832070B4E6EC9
:1008F600020E4E6481EF04F084EF04F0FFFF86EFF2
:1009060004F0FFFF4F6AFFFF4F501200FFFFFFFF8B
:1009160050C04DF0F8EC03F00009D8B495EF04F0A0
:1009260098EF04F0FFFFA6EF04F0FFFF50284D6E8E
:10093600F8EC03F00009D8A4A3EF04F0A6EF04F046
:10094600FFFFAAEF04F0FFFF526A15EF05F0FFFF65
:100956005050D96EDA6A020ED926DF50D8A4B6EF07
:1009660004F0B9EF04F0FFFFDFEF04F0FFFF536A76
:10097600FFFF50505324070F4D6EF8EC03F0526EF4
:100986005250D8A4C9EF04F0CCEF04F0FFFFD1EF2A
:1009960004F0FFFFFFFF000E17EF05F0FFFF532ADD
:1009A600030E5364D9EF04F0DCEF04F0FFFFBBEF56
:1009B60004F0FFFF15EF05F0FFFF5050D96EDA6A1D
:1009C600020ED926DE04D8A4EBEF04F0EEEF04F015
:1009D600FFFF12EF05F0FFFF536AFFFF505053244D
:1009E600030F4D6EF8EC03F0526E5250D8A4FEEF92
:1009F60004F001EF05F0FFFF04EF05F0FFFFCDEF78
:100A060004F0FFFF532A070E53640CEF05F00FEFB7
:100A160005F0FFFFF0EF04F0FFFF15EF05F0FFFF15
:100A2600010E526EFFFF5250FFFF1200FFFFFFFF45
:100A3600010E566E50C04DF0F8EC03F00009D8A434
:100A460027EF05F02AEF05F0FFFF88EF05F0FFFF1F
:100A5600FFFF566AA2EF05F0FFFF5050D96EDA6A23
:100A6600DF30E832E832070B516E010E526E512A22
:100A760040EF05F0FFFFD8905236FFFF512E3DEFB5
:100A860005F05250FF0A536E5050D96EDA6ADF50A5
:100A9600070B020DF350150FD96EDA6ADECF54F04C
:100AA600DDCF55F054C0D9FF55C0DAFF5350DF16DD
:100AB600A2EF05F0FFFF5050D96EDA6ADF30E83258
:100AC600E832070B516E010E526E512A6EEF05F099
:100AD600FFFFD8905236FFFF512E6BEF05F05050B6
:100AE600D96EDA6ADF50070B020DF350150FD96E77
:100AF600DA6ADECF53F0DDCF54F053C0D9FF54C0CD
:100B0600DAFF5250DF12A2EF05F0FFFF5050D96E08
:100B1600DA6ADFBC91EF05F095EF05F0FFFF010EF5
:100B260097EF05F0FFFF000EFFFF000AD8B42FEF86
:100B360005F0010AD8B45DEF05F02BEF05F0FFFFD5
:100B460056501200FFFFFFFF010E576E50C04DF0CA
:100B5600F8EC03F00009D8A4B3EF05F0B6EF05F002
:100B6600FFFF14EF06F0FFFFFFFF576A2BEF06F0BB
:100B7600FFFF5050D96EDA6ADF30E832E832070BF1
:100B8600526E010E536E522ACCEF05F0FFFFD8903D
:100B96005336FFFF522EC9EF05F05350FF0A546E2D
:100BA6005050D96EDA6ADF50070B020DF3500B0F67
:100BB600D96EDA6ADECF55F0DDCF56F055C0D9FFD3
:100BC60056C0DAFF5450DF162BEF06F0FFFF5050E9
:100BD600D96EDA6ADF30E832E832070B526E010E60
:100BE600536E522AFAEF05F0FFFFD8905336FFFFF7
:100BF600522EF7EF05F05050D96EDA6ADF50070B28
:100C0600020DF3500B0FD96EDA6ADECF54F0DDCF4A
:100C160055F054C0D9FF55C0DAFF5350DF122BEF01
:100C260006F0FFFF5150526E536A5350000AD8B473
:100C36001FEF06F0B7EF05F0FFFF5250000AD8B4D9
:100C4600BBEF05F0010AD8B4E9EF05F0B7EF05F000
:100C5600FFFF57501200FFFFFFFF5E50D8A436EF8C
:100C660006F039EF06F0FFFF3DEF06F0FFFF606A82
:100C76007BEF06F0FFFF5EC050F0010E516EA6EC52
:100C860005F05E50D96EDA6A020ED926DF50D8A476
:100C96004FEF06F052EF06F0FFFF6EEF06F0FFFF94
:100CA6005EC058F05F380F0B596E0EEC07F0606EA1
:100CB6005EC058F0CEEC07F0606E5EC058F05FC0C4
:100CC60059F00EEC07F0606E5EC058F0CEEC07F0FF
:100CD600606E7BEF06F0FFFF5EC058F05FC059F014
:100CE600CAEC06F0606E5EC058F0CEEC07F0606E9F
:100CF600FFFF60501200FFFFFFFF5E50D8A486EF93
:100D060006F089EF06F0FFFF8DEF06F0FFFF606A41
:100D1600C6EF06F0FFFF5EC050F0000E516EA6EC67
:100D260005F05E50D96EDA6A020ED926DF50D8A4D5
:100D36009FEF06F0A2EF06F0FFFFB9EF06F0FFFF08
:100D46005EC058F05F380F0B596E0EEC07F0606E00
:100D56005EC058F0CEEC07F0606E5EC058F05FC023
:100D660059F00EEC07F0606EC6EF06F0FFFF5EC0AE
:100D760058F05FC059F0CAEC06F0606E5EC058F0DD
:100D8600CEEC07F0606EFFFF60501200FFFFFFFF22
:100D96005850D8A4D1EF06F0D4EF06F0FFFFD8EFF5
:100DA60006F0FFFF5C6A0AEF07F0FFFF5D6AFFFFD0
:100DB60058505D24030F506E5DC05AF059C05BF069
:100DC6005A2AE9EF06F0FFFFD8905B32FFFF5A2E52
:100DD600E6EF06F05B50010B516EA6EC05F05C6E7B
:100DE6005C50D8A4F9EF06F0FCEF06F0FFFFFFEF2A
:100DF60006F0FFFF0AEF07F0FFFF5D2A070E5D64AE
:100E060007EF07F00AEF07F0FFFFDAEF06F0FFFF44
:100E16005C501200FFFFFFFF5850D8A415EF07F0F3
:100E260018EF07F0FFFF1CEF07F0FFFF5C6A4EEFBD
:100E360007F0FFFF5D6AFFFF58505D24070F506EF5
:100E46005DC05AF059C05BF05A2A2DEF07F0FFFF3C
:100E5600D8905B32FFFF5A2E2AEF07F05B50010B4A
:100E6600516EA6EC05F05C6E5C50D8A43DEF07F021
:100E760040EF07F0FFFF43EF07F0FFFF4EEF07F0ED
:100E8600FFFF5D2A030E5D644BEF07F04EEF07F0A0
:100E9600FFFF1EEF07F0FFFF5C501200FFFFFFFF92
:100EA600010E646E630670EF07F0FFFF61C05EF02F
:100EB6006250800F5F6E7FEC06F07CEF07F0FFFF5D
:100EC60061C05EF06250A80F5F6E7FEC06F07CEFAB
:100ED60007F0FFFF646A7CEF07F0FFFF6250010A2C
:100EE600D8B458EF07F0030AD8B462EF07F06CEFF6
:100EF60007F0FFFF64501200FFFFFFFF58C04DF0E0
:100F0600F8EC03F00009D8A48BEF07F08EEF07F09A
:100F1600FFFF92EF07F0FFFF596AA4EF07F0FFFF0C
:100F260058C050F01AEC05F0596E58C050F05850A1
:100F3600D96EDA6A000EDFBE010E516EA6EC05F020
:100F4600596EFFFF59501200FFFF800F810F820F6D
:100F5600830F840F890F8A0F8B0F8C0F8D0F920FC3
:100F6600930F940F950F960F211911092B231B131D
:100F760000000810180001000810184C0100E001DC
:100F8600017C4A08105A8B8B080B08939B01A2AA76
:100F9600B2BAA3ABB3BBFFFF5850D8A4D5EF07F046
:100FA600D8EF07F0FFFFDCEF07F0FFFF596AEFEF1E
:100FB60007F0FFFF5828506E010E516EA6EC05F0A3
:100FC600070EFFFFE82EFDD700D05828506E000E02
:100FD600516EA6EC05F0596EFFFF59501200FFFF47
:100FE600FFFF6550D8A4FAEF07F0FDEF07F0FFFF0B
:100FF60001EF08F0FFFF696A12EF08F0FFFF65C016
:1010060061F066C062F067C063F052EC07F0696E8B
:1010160065C05EF068C05FF02FEC06F0696EFFFFFA
:1010260069501200FFFF500EF66E0F0EF76E000E9F
:10103600F86E00EE01F010EE4CF00900F5CFEEFF71
:10104600E550E150FAE100EE6AF00C0EEE6AE806B1
:10105600FDE1000EF86E000131EF08F0FFFF4CECE9
:1010660008F0420E656E010E666E040E676E410E46
:10107600686EF3EC07F0FFFF3EEF08F0FEEF1FF09F
:10108600FFFF420E616E0BEC03F0656E65501200B9
:0E109600FFFFFFFF43EC08F01200FFFFFFFF1B
:043FFC0016EF08F0C4
:020000040030CA
:0E000000FF220D0EFF0181FF0FC00FE00F4029
:00000001FF
